:020000040800F2
:1000000000500020B12E0008790100087B01000893
:100010007D0100087F010008810100080000000048
:100020000000000000000000000000008301000844
:100030008501000800000000870100088901000810
:10004000F92E0008F92E0008F92E0008F92E0008F4
:10005000F92E0008F92E0008F92E0008F92E0008E4
:10006000F92E0008F92E0008F92E0008F92E0008D4
:10007000F92E0008F92E0008F92E0008F92E0008C4
:10008000F92E0008F92E0008F92E0008F92E0008B4
:1000900095010008F92E0008F92E0008F92E000835
:1000A000F92E0008F92E0008F92E0008F92E000894
:1000B000F92E0008F92E0008F92E0008F92E000884
:1000C000F92E0008F92E0008F92E0008F92E000874
:1000D000F92E0008F92E0008F92E0008F92E000864
:1000E000F92E0008F92E0008F92E00080000000083
:1000F0000000000000000000000000000000000000
:0C01000000000000000000005FF808F1A3
:10010C0010B5054C237833B9044B13B10448AFF345
:10011C0000800123237010BD580100200000000056
:10012C00442F00080C4B43B10C4810B50C49AFF3ED
:10013C0000800C48036823B910BD0A48036833B922
:10014C007047094B002BF7D0BDE810401847064B01
:10015C00002BF5D0184700BF00000000442F00080A
:10016C005C01002058010020000000007047FEE7F1
:10017C00FEE7FEE7FEE770477047704708B501F0F1
:10018C00CFFE00F090F908BD08B5024802F0F9FB6B
:10019C0008BD00BFC017002012230B800048704719
:1001AC001C00002004230B80004870473000002006
:1001BC0008B50A4628B10549054801F037FD034842
:1001CC0008BD0249024801F031FDF8E79803002010
:1001DC00A02F000810B5044C0A462146034801F034
:1001EC0025FD204610BD00BF980300208C2F000871
:1001FC0008B50A4628B10549054801F017FD034822
:10020C0008BD0249024801F011FDF8E798030020EF
:10021C00B82F000808B50A4628B10549054801F071
:10022C0005FD034808BD0249024801F0FFFCF8E750
:10023C0098030020702F000808B50A4628B105491C
:10024C00054801F0F3FC034808BD0249024801F0DF
:10025C00EDFCF8E7980300207C2F000810B588B05F
:10026C00174B9A6942F010029A619A6902F01002D7
:10027C000192019A9A6942F020029A619A6902F0FD
:10028C0020020292029A9A6942F004029A619B69D6
:10029C0003F004030393039B0A4C01224FF4005117
:1002AC00204601F07DFF4FF4005304930123059386
:1002BC000223079304A9204601F07CFE08B010BD70
:1002CC000010024000100140FEE7000000B595B0A0
:1002DC0001220A924FF480330B9300210C910E9261
:1002EC000222119212934FF4801313930AA800F078
:1002FC00F5F858BB0F2305930223069300230793AD
:10030C004FF4806208920993012105A800F00CFBC0
:10031C0000BB102301934FF48003049301A801F058
:10032C0045FFD8B900F0BCFB0E4BA3FB0030800995
:10033C0000F092F8042000F0A5F8002211464FF0CE
:10034C00FF3000F04BF815B05DF804FB8E21064829
:10035C00FFF7BAFF9C210448FFF7B6FFA321024820
:10036C00FFF7B2FFD34D6210C82F000808B501F09B
:10037C00C5FDFFF7ABFFFFF771FF00F001F8FEE7DB
:10038C0010B5094C00220949204601F056F80849DD
:10039C00204601F069F80749204601F06BFD204624
:1003AC0001F069F810BD00BF980500200000002086
:1003BC003800002048010020074AD36823F4E0638A
:1003CC001B041B0C000200F4E060184340F0BF60FB
:1003DC0040F40030D060704700ED00E030B4164BB4
:1003EC00DB68C3F30223C3F10704042C28BF0424E5
:1003FC001D1D062D17D9033B012505FA04F4013CFC
:10040C002140994005FA03F3013B1340194300289E
:10041C000BDB0901C9B200F1604000F5614080F8C6
:10042C00001330BC70470023E6E700F00F00090111
:10043C00C9B2024B1954F4E700ED00E014ED00E0F2
:10044C00420900F01F00012303FA00F0014B43F8AE
:10045C002200704700E100E00138B0F1807F0AD241
:10046C00064B5860F021064A82F823100020986051
:10047C0007221A6070470120704700BF10E000E0AF
:10048C0000ED00E0042805D0054A136823F00403AE
:10049C0013607047024A136843F0040313607047FB
:1004AC0010E000E0704708B5FFF7FCFF08BD000046
:1004BC0082B0084B1B68084AA2FB03235B0A00FBB3
:1004CC0003F0019000BF019B5A1E0192002BF9D141
:1004DC0002B0704734000020D34D621070B582B06A
:1004EC000446036813F0010F3DD0AC4B5B6803F07E
:1004FC000C03042B2ED0A94B5B6803F00C03082BC8
:10050C0023D06368B3F5803F51D0002B55D103F154
:10051C00804303F504331A6822F480321A601A6897
:10052C0022F480221A606368002B60D001F000FD79
:10053C0005469A4B1B6813F4003F14D101F0F8FCEC
:10054C00401B6428F5D90320AFE1944B5B6813F48E
:10055C00803FD6D0914B1B6813F4003F03D06368E7
:10056C00002B00F09F81236813F0020F65D08B4B9A
:10057C005B6813F00C0F4ED0884B5B6803F00C03D8
:10058C00082B43D02369002B79D00122844B1A60AD
:10059C0001F0CEFC0546814B1B6813F0020F65D1B0
:1005AC0001F0C6FC401B0228F5D903207DE17B4AF3
:1005BC00136843F480331360B5E7B3F5A02F09D06B
:1005CC00764B1A6822F480321A601A6822F4802260
:1005DC001A60A8E703F18043A3F53C331A6842F490
:1005EC0080221A601A6842F480321A609BE701F08C
:1005FC009FFC0546694B1B6813F4003FB3D001F018
:10060C0097FC401B6428F5D903204EE1634B5B68D3
:10061C0013F4803FB6D1614B1B6813F0020F04D06A
:10062C002369012B01D001203FE15C4A136823F0C0
:10063C00F803616943EAC1031360236813F0080FE0
:10064C0032D0A369002B6ED00122564B1A6001F0F8
:10065C006FFC0546514B5B6A13F0020F21D101F080
:10066C0067FC401B0228F5D903201EE14B4A136896
:10067C0023F0F803616943EAC1031360DDE700224C
:10068C00474B1A6001F054FC0546444B1B6813F0B1
:10069C00020FD2D001F04CFC401B0228F5D90320EC
:1006AC0003E10120FFF704FF236813F0040F00F0AF
:1006BC0099803A4BDB6913F0805F46D1374BDA698E
:1006CC0042F08052DA61DB6903F080530193019BA5
:1006DC000125354B1B6813F4807F38D0E368012B60
:1006EC0049D0002B4DD103F1804303F504331A6A32
:1006FC0022F001021A621A6A22F004021A62E368FA
:10070C00002B5DD001F014FC0646244B1B6A13F041
:10071C00020F66D101F00CFC801B41F28833984229
:10072C00F3D90320C1E000221E4B1A6001F000FC3B
:10073C0005461A4B5B6A13F0020FB5D001F0F8FBBB
:10074C00401B0228F5D90320AFE00025C1E7164A6B
:10075C00136843F48073136001F0EAFB0646124BF6
:10076C001B6813F4807FB9D101F0E2FB801B642875
:10077C00F5D9032099E0094A136A43F00103136287
:10078C00BDE7052B12D0054B1A6A22F001021A6242
:10079C001A6A22F004021A62B1E700BF001002408C
:1007AC00000042428004424200700040414B1A6AF1
:1007BC0042F004021A621A6A42F001021A629EE7BF
:1007CC0001F0B6FB06463B4B1B6A13F0020F08D038
:1007DC0001F0AEFB801B41F288339842F3D9032021
:1007EC0063E0E5B9E369002B5ED0324A526802F04F
:1007FC000C02082A5BD0022B17D000222E4B1A6059
:10080C0001F096FB04462B4B1B6813F0007F47D07E
:10081C0001F08EFB001B0228F5D9032045E0254A88
:10082C00D36923F08053D361DCE70022224B1A609A
:10083C0001F07EFB05461F4B1B6813F0007F06D0B2
:10084C0001F076FB401B0228F5D903202DE0236A2A
:10085C00B3F5803F1AD017494B6823F47413226AFE
:10086C00606A024313434B600122134B1A6001F080
:10087C005FFB04460F4B1B6813F0007F0ED101F099
:10088C0057FB001B0228F5D903200EE0094A5368D8
:10089C0023F40033A1680B435360DCE7002004E031
:1008AC00002002E0012000E0002002B070BD012019
:1008BC00FBE700BF001002406000424210B586B05A
:1008CC00154C94E80F000DF1180E0EE90F00238A59
:1008DC00ADF80430114B5B6803F00C02082A18D1F8
:1008EC00C3F38342724412F8100C13F4803F03D10B
:1008FC000B4B03FB00F00DE0084B5B68C3F340436C
:10090C00734413F8142C074BB3FBF2F303FB00F006
:10091C0000E0044806B010BD5C2F00080010024037
:10092C0000093D0000127A00594B1B6803F00703C5
:10093C008B420CD2564A136823F007030B43136007
:10094C00136803F00703994201D00120704770B57A
:10095C00036813F0020F06D04E4A536823F0F003DD
:10096C008468234353600D460446036813F0010F5B
:10097C0052D04368012B23D0022B28D0454A126851
:10098C0012F0020F00F0828042494A6822F0030202
:10099C0013434B6001F0CCFA06466368012B1DD063
:1009AC00022B2AD03B4B5B6813F00C0F34D001F0B8
:1009BC00BFFA801B41F288339842F3D9032070BDF3
:1009CC00344A126812F4003FDED1012070BD314A66
:1009DC00126812F0007FD7D1012070BD2D4B5B68DF
:1009EC0003F00C03042B17D001F0A2FA801B41F288
:1009FC0088339842F2D9032070BD264B5B6803F014
:100A0C000C03082B08D001F093FA801B41F28833B9
:100A1C009842F2D9032070BD1D4B1B6803F00703ED
:100A2C009D420CD21A4A136823F007032B43136020
:100A3C00136803F007039D4201D0012070BD2368A9
:100A4C0013F0040F06D0134A536823F4E063E168F3
:100A5C000B435360236813F0080F07D00D4A5368FB
:100A6C0023F46053216943EAC1035360FFF726FF67
:100A7C00084B5B68C3F30313074AD35CD840074B9E
:100A8C001860002001F024FA002070BD012070BD18
:100A9C000020024000100240D42F00083400002037
:100AAC00014B1868704700BF3400002084B001A8C7
:100ABC0080E80E00002004B07047B0F840309BB2C4
:100ACC0043F43F43A0F8403000207047B0F840306A
:100ADC0023F474535B045B0CA0F840300020704787
:100AEC000020704784B038B505AC84E80E000123B3
:100AFC00A0F840300024A0F84040A0F84440A0F8F2
:100B0C005040FFF7DAFF2046BDE8384004B070478C
:100B1C0010B4CB78032B0FD8DFE803F0026E5561CD
:100B2C000A7830F822309BB223F4EC4323F07003A4
:100B3C0043F4007320F822300A7830F8223023F086
:100B4C00F0031B051B0D134343F4004343F08003D8
:100B5C0020F822308B7A002B40F0B2804B78002B9F
:100B6C0057D0B0F850309BB20A7803EBC20300EBBD
:100B7C0043038A8852085200C3F800240A7830F8DC
:100B8C00223013F0400F0BD030F8223023F0F0035A
:100B9C001B051B0D43F4004343F0C00320F8223027
:100BAC000A7830F822309BB223F4E04323F0400360
:100BBC0083F0200343F4004343F0800320F82230F9
:100BCC00002010BC70470A7830F822309BB223F416
:100BDC00EC4323F070039BB220F82230ACE70A7888
:100BEC0030F822309BB223F4EC4323F0700343F42F
:100BFC00C06320F822309FE70A7830F822309BB28D
:100C0C0023F4EC4323F0700343F4806320F8223088
:100C1C0092E7B0F850309BB20A7803EBC20304336E
:100C2C0000EB43038A8852085200C3F80024B0F842
:100C3C0050309BB20A7803EBC203063300EB43033C
:100C4C000C693E2C30D9C4F34F1214F01F0F01D194
:100C5C00013A92B26FEAC2626FEA524292B2C3F8A0
:100C6C0000240A7830F8223013F4804F0BD030F87F
:100C7C00223023F0F0031B051B0D43F4404343F0DB
:100C8C00800320F822300A7830F822309BB223F40B
:100C9C00804323F0700383F4405343F4004343F048
:100CAC00800320F822308BE7C4F34F0214F0010FBD
:100CBC0001D0013292B2920292B2C3F80024D0E772
:100CCC000A7830F8223023F4F8731B051B0D43F41B
:100CDC00014343F0800320F82230B0F850309BB22F
:100CEC000A7803EBC20300EB4303CA885208520094
:100CFC00C3F80024B0F850309BB20A7803EBC2035F
:100D0C00043300EB43030A8952085200C3F8002451
:100D1C004B78002B4BD10A7830F8223013F4804FEB
:100D2C000BD030F8223023F0F0031B051B0D43F4DD
:100D3C00404343F0800320F822300A7830F8223008
:100D4C0013F0400F0BD030F8223023F0F0031B05CA
:100D5C001B0D43F4004343F0C00320F822300A7803
:100D6C0030F8223023F0F0031B051B0D43F4004335
:100D7C0043F0C00320F822300A7830F822309BB2BE
:100D8C0023F4804323F0700383F4405348F280042F
:100D9C00234320F822300A7830F822309BB223F417
:100DAC00E04323F04003234320F8223008E70A787D
:100DBC0030F8223013F4804F0BD030F8223023F06F
:100DCC00F0031B051B0D43F4404343F0800320F854
:100DDC0022300A7830F8223013F0400F0BD030F864
:100DEC00223023F0F0031B051B0D43F4004343F0AA
:100DFC00C00320F822300A7830F8223023F0F003B8
:100E0C001B051B0D43F4404343F0800320F82230B4
:100E1C000B7830F8232092B222F4E04222F0400208
:100E2C0048F28004224320F823200A7830F822303C
:100E3C009BB223F4804323F07003234320F8223029
:100E4C00BEE68B7A002B44D14B780BB30A7830F882
:100E5C00223013F0400F0BD030F8223023F0F00387
:100E6C001B051B0D43F4004343F0C00320F8223054
:100E7C000A7830F822309BB223F4E04323F040038D
:100E8C0043F4004343F0800320F8223000207047E5
:100E9C000A7830F8223013F4804F0BD030F822301F
:100EAC0023F0F0031B051B0D43F4404343F0800378
:100EBC0020F822300A7830F822309BB223F4804399
:100ECC0023F0700343F4004343F0800320F82230F6
:100EDC00DCE710B44B78002B4BD10A7830F8223079
:100EEC0013F4804F0BD030F8223023F0F0031B05A5
:100EFC001B0D43F4404343F0800320F822300A7862
:100F0C0030F8223013F0400F0BD030F8223023F0A1
:100F1C00F0031B051B0D43F4004343F0C00320F802
:100F2C0022300A7830F8223023F0F0031B051B0D19
:100F3C0043F4004343F0C00320F822300B7830F820
:100F4C00232092B222F4804222F0700248F28004F4
:100F5C00224320F823200A7830F822309BB223F465
:100F6C00E04323F04003234320F82230002010BC40
:100F7C0070470A7830F8223013F4804F0BD030F8D9
:100F8C00223023F0F0031B051B0D43F4404343F0C8
:100F9C00800320F822300A7830F8223013F0400F0A
:100FAC000BD030F8223023F0F0031B051B0D43F45B
:100FBC00004343F0C00320F822300A7830F8223086
:100FCC0023F0F0031B051B0D43F4404343F0800357
:100FDC0020F822300B7830F8232092B222F4E04231
:100FEC0022F0400248F28004224320F823200A78A1
:100FFC0030F822309BB223F4804323F07003234358
:10100C0020F82230B2E70A788AB14B7813BB30F85B
:10101C0022309BB223F4804323F0700383F480537B
:10102C0043F4004343F0800320F8223010E030F802
:10103C0022309BB223F4804323F0400383F480538B
:10104C0083F0100343F4004343F0800320F8223074
:10105C000020704730F822309BB223F4E04323F099
:10106C00400383F0100343F4004343F0800320F863
:10107C002230EDE74B781BB30A7830F8223013F0AE
:10108C00400F0BD030F8223023F0F0031B051B0D62
:10109C0043F4004343F0C00320F822300A7830F8C0
:1010AC0022309BB223F4E04323F0400383F030035F
:1010BC0043F4004343F0800320F8223000207047B3
:1010CC000A7830F8223013F4804F0BD030F82230ED
:1010DC0023F0F0031B051B0D43F4404343F0800346
:1010EC0020F822300A7830F822309BB223F4804367
:1010FC0023F0700383F4405343F4004343F0800324
:10110C0020F82230DAE711B98023A0F84C30002007
:10111C0070470020704700207047B0F8440080B240
:10112C0070470020704701335B1000EB420202F560
:10113C00806263B110B40C78487844EA002422F839
:10114C00044B0231013B002BF5D110BC70477047AA
:10115C00F8B58A694C78012C35D00B699A4240F26B
:10116C00F080D21A8A618A7A002A40F0FA80B0F8AC
:10117C00502092B20C7802EBC402063200EB420211
:10118C003E2B40F2E280C3F34F1413F01F0F01D13A
:10119C00013CA4B26FEAC4646FEA5444A4B2C2F82E
:1011AC0000440A7830F822309BB223F4804323F0B9
:1011BC00700383F4405343F4004343F0800320F85E
:1011CC0022300020F8BD0F69BA4226D9D21B8A61A1
:1011DC000E4605468B7A23B30B7830F8232012F099
:1011EC00400F6CD0002C39D1B0F8502092B202EBE9
:1011FC00C303063300EB43033E2F23D9C7F34F122F
:10120C0017F01F0F01D1013A92B26FEAC2626FEA76
:10121C00524292B2C3F800242AE000238B61174695
:10122C00D6E7BBB28A884969FFF77DFFB5F8503025
:10123C009BB2327803EBC203023305EB4303C3F8D2
:10124C0000742BE0C7F34F0217F0010F01D00132ED
:10125C0092B2920292B2C3F8002409E0B0F8502086
:10126C0092B202EBC303023300EB4303C3F80074E6
:10127C003289BBB271692846FFF755FF7378002B92
:10128C004FD1327835F8223023F0F0031B051B0DBB
:10129C0043F4004343F0C00325F82230327835F88C
:1012AC0022309BB223F4E04323F0400383F030035D
:1012BC0043F4004343F0800325F8223081E724BB3C
:1012CC00B0F8502092B202EBC303023300EB43039D
:1012DC003E2F0ED9C7F34F1217F01F0F01D1013A51
:1012EC0092B26FEAC2626FEA524292B2C3F8002421
:1012FC0015E0C7F34F0217F0010F01D0013292B283
:10130C00920292B2C3F8002409E0B0F8502092B2D5
:10131C0002EBC303023300EB4303C3F80074F288FF
:10132C00A7E7012BBAD1327835F8223023F0F0033D
:10133C001B051B0D43F4404343F0800325F822307A
:10134C00ACE700238B6113460DE7C3F34F0413F096
:10135C00010F01D00134A4B2A402A4B2C2F800441B
:10136C001FE7C4B9B0F8502092B20C7802EBC4025B
:10137C00023200EB42023E2B29D9C3F34F1413F077
:10138C001F0F01D1013CA4B26FEAC4646FEA54444C
:10139C00A4B2C2F800444A788ABBB0F8502092B28A
:1013AC000C7802EBC402063200EB42023E2B1AD937
:1013BC00C3F34F1413F01F0F01D1013CA4B26FEA19
:1013CC00C4646FEA5444A4B2C2F80044E9E6C3F31F
:1013DC004F0413F0010F01D00134A4B2A402A4B243
:1013EC00C2F80044D7E7C3F34F0413F0010F01D048
:1013FC000134A4B2A402A4B2C2F80044D1E6012A7A
:10140C007FF4CFAEB0F8502092B20C7802EBC4024D
:10141C00023200EB4202C2F80034C2E601335B1028
:10142C0000EB420202F5806204E0106821F8020B26
:10143C00013B0432002BF8D1704798B108B5034634
:10144C00D0F8140210B10020C3F8140209B1C3F88B
:10145C0010121846012380F8FC31027001F046FC92
:10146C00002008BD0220704719B1C0F814120020EA
:10147C0070470220704708B501F082FC002008BDBF
:10148C0008B5D0F8143223B11B68984718B1022064
:10149C0008BD022008BD002008BD08B5D0F81432E4
:1014AC005B689847002008BD38B5044600F5027506
:1014BC00284600F075F90123C4F8F431B4F80E3263
:1014CC00C4F8F83194F8081201F01F03012B0ED068
:1014DC003BB1022B10D001F08001204601F07DFCC5
:1014EC0003E02946204600F0D5FA002038BD2946F5
:1014FC00204600F0F3FAF8E72946204600F00AFBF4
:10150C00F3E710B5044619BB1346D0F8F421032AAF
:10151C0027D1D0F80C11D0F8102191420BD8D0F86B
:10152C0014321B691BB190F8FC21032A0ED0204603
:10153C0000F0E0F815E0891AC0F80C118A4228BFB7
:10154C000A4692B2194600F0CDF80AE09847EEE749
:10155C000A46D0F814329B691BB190F8FC11032990
:10156C0001D0002010BD11469847FAE710B504468B
:10157C00002947D11346D0F8F421022A05D094F85B
:10158C000032012B3AD0002010BDC169026A914291
:10159C0017D88169B1FBF2F302FB13132BB98A4202
:1015AC0003D8D0F8F831994218D3D4F81432DB6848
:1015BC001BB194F8FC21032A1DD0204600F0A5F89D
:1015CC00DDE78A1AC26192B2194600F074F8002362
:1015DC001A461946204601F04BFCD0E70022114672
:1015EC0000F069F80021C4F8F8110B460A462046B1
:1015FC0001F03EFCC3E720469847DEE7002384F861
:10160C000032C0E70A46D0F814325B69002BBAD01E
:10161C0090F8FC110329B6D111469847B3E738B5B9
:10162C00044640230022114601F0B8FB4025C4F8C3
:10163C0010512B4600228021204601F0AFFB256281
:10164C00012384F8FC31D4F818322BB1D4F81432BD
:10165C005B68217920469847002038BD0174002032
:10166C00704790F8FC3180F8FD31042380F8FC3190
:10167C000020704790F8FD3180F8FC310020704755
:10168C0008B590F8FC31032B01D0002008BDD0F830
:10169C001432DB69002BF8D09847F6E710B51346E7
:1016AC000222C0F8F4218361C3610A46002101F0D3
:1016BC00D1FB002010BD08B513460A46002101F0ED
:1016CC00C9FB002008BD10B513460322C0F8F42155
:1016DC00C0F80831C0F80C310A46002101F0C8FBF3
:1016EC00002010BD08B513460A46002101F0C0FBCE
:1016FC00002008BD08B50423C0F8F43100231A46B5
:10170C00194601F0A7FB002008BD08B50523C0F859
:10171C00F43100231A46194601F0AAFB002008BD3B
:10172C000F4B1A6842F001021A6059680D4A0A40C0
:10173C005A601A6822F0847222F480321A601A6895
:10174C0022F480221A605A6822F4FE025A604FF486
:10175C001F029A604FF00062034B9A60704700BF03
:10176C00001002400000FFF800ED00E0002302E052
:10177C000133DBB201300278002AF9D118467047E8
:10178C004B88012B00D0704710B50446C0F80432CA
:10179C00D0F814329B6898472046FFF7ABFF10BD7A
:1017AC000B7803704B7843708B78CA7803EB022369
:1017BC0043800B794A7903EB022383808B79CA79B6
:1017CC0003EB0223C380704710B50446802101F05F
:1017DC0004FB0021204601F000FB10BD30B583B0A6
:1017EC0004460D464A88130A013B062B00F2818001
:1017FC00DFE803F00413277F7F637000D0F810320A
:10180C001B680DF10601007C9847BDF8062012B14B
:10181C00EB88002B71D103B030BD037C43B9D0F8F9
:10182C0014329B6A0DF10600984702234370ECE7D3
:10183C00D0F81432DB6A0DF106009847022343708E
:10184C00E3E7D2B2052A34D8DFE802F0030B131B0E
:10185C00232BD0F810325B680DF10601007C984701
:10186C00D3E7D0F810329B680DF10601007C984745
:10187C00CBE7D0F81032DB680DF10601007C9847FD
:10188C00C3E7D0F810321B690DF10601007C9847B4
:10189C00BBE7D0F810325B690DF10601007C98476C
:1018AC00B3E7D0F810329B690DF10601007C984724
:1018BC00ABE72946FFF788FFADE7037C33B9D0F8D7
:1018CC0014325B6B0DF1060098479EE72946FFF733
:1018DC007BFFA0E7037C43B9D0F814321B6B0DF1EE
:1018EC0006009847072343708FE72946FFF76CFFE4
:1018FC0091E72946FFF768FF8DE79A4228BF1A4601
:10190C00ADF8062001462046FFF7C8FE83E738B540
:10191C0004468B88E3B9CB88D3B98D7805F07F0565
:10192C0090F8FC31032B0CD080F8FE51294601F0C5
:10193C0083FA2046FFF7DEFE35B1022384F8FC3132
:10194C0038BDFFF741FF38BD012384F8FC3138BDA9
:10195C002046FFF739FF38BD38B504460D46897867
:10196C00254B1970012909D890F8FC31022B09D0AC
:10197C00032B1CD02946FFF727FF38BD2946FFF75C
:10198C0023FF38BD81B14160032380F8FC31FFF7A0
:10199C0077FD022803D02046FFF7ACFE38BD294660
:1019AC002046FFF711FF38BDFFF7A4FE38BD89B103
:1019BC00436899421DD0D9B2FFF76FFD0E4B1978D1
:1019CC0061602046FFF75CFD02280DD02046FFF732
:1019DC0091FE38BD022380F8FC314160FFF75DFDBC
:1019EC002046FFF787FE38BD29462046FFF7ECFE60
:1019FC0038BDFFF77FFE38BD7401002008B5CB88D9
:101A0C00012B08D190F8FC31022B07D0032B0DD001
:101A1C00FFF7DAFE08BDFFF7D7FE08BD014600232D
:101A2C0041F8083F0122FFF739FE08BD0122011DD4
:101A3C00FFF734FE08BD08B590F8FC31023B012BD2
:101A4C000CD80123C360D0F804320BB10323C3605C
:101A5C00022200F10C01FFF721FE08BDFFF7B4FED6
:101A6C0008BD10B5044690F8FC31023B012B0ED892
:101A7C004B88012B00D010BD0023C0F80432D0F8E5
:101A8C0014329B6898472046FFF734FE10BDFFF7D1
:101A9C009BFEF0E708B54B78092B1CD8DFE803F068
:101AAC0012181B151B09051B0F0CFFF797FE0020C6
:101ABC0008BDFFF72CFFFAE7FFF74EFFF7E7FFF73C
:101ACC009DFFF4E7FFF7B7FFF1E7FFF759FEEEE7ED
:101ADC00FFF7C7FFEBE7FFF777FEE8E738B50446FB
:101AEC000D4690F8FC31032B11D10B79012B03D946
:101AFC00FFF76AFE002038BDD0F814329B68984777
:101B0C00EB88002BF6D12046FFF7F4FDF2E7FFF748
:101B1C005BFEEFE738B505460C468A880B7803F078
:101B2C006003202B11D0D1B26378012B2BD0002B6A
:101B3C004DD0032B0DD190F8FC31022B0BD0032B85
:101B4C0010D02146FFF740FE03E0D0F814329B681A
:101B5C009847002038BD0029FBD08029F9D001F02E
:101B6C003CF9F6E7638823B919B1802901D001F05B
:101B7C0034F9D5F814329B682146284698472846F4
:101B8C00FFF7B8FDE5E790F8FC31022B05D0032BED
:101B9C000AD02146FFF718FEDBE70029D9D08029AF
:101BAC00D7D001F01AF9D4E76388002BD1D111F00A
:101BBC007F0F03D12846FFF79DFDCAE701F01BF903
:101BCC00D5F814329B68214628469847F2E790F8DE
:101BDC00FC31022B05D0032B09D02146FFF7F4FD75
:101BEC00B7E711F07F0FB4D001F0F7F8B1E712F0BE
:101BFC00800F11D101F07F04103400EB0414043475
:101C0C00284601F006F970B1012323600222214617
:101C1C002846FFF743FD9CE701F07F04013400EBFD
:101C2C0004140434ECE700232360EFE7D0B170B563
:101C3C000D4616460446FFF799FD0130400080B270
:101C4C003080287003236B70022307E05A1CD2B239
:101C5C000134E9540233DBB20021A9542178002964
:101C6C00F4D170BD704711F0800F0CD001F07F01E2
:101C7C004901283101445AB101228A72CB801B0CD4
:101C8C000B8100207047490101F50A710144F2E70C
:101C9C008A728B80F5E7D0F818321BB10020C3F89C
:101CAC00140270470220704710B5D0F81842D0F8D3
:101CBC001C325BB194F80002FF2807D09B6894F8A3
:101CCC00012221469847FF2384F80032002010BDE2
:101CDC004323038000487047700000204323038097
:101CEC0000487047B400002043230380004870472D
:101CFC00040100200A23038000487047F8000020EC
:101D0C0038B50446D0F8185201F0C0F8C5F80C02EA
:101D1C00D4F818324BB1D4F81C32DB6805F50371DA
:101D2C00D5F804029847002038BD022038BD0000C9
:101D3C0070B505460C46D0F818620B7813F06002AB
:101D4C0024D0202A25D1CA88CAB113F0800F0AD119
:101D5C004B7886F80032CB8886F80132CA88314637
:101D6C00FFF7B1FC15E0D0F81C329B683146607867
:101D7C009847E28831462846FFF790FC09E0D0F8F6
:101D8C001C329B6800224878984702E04B780A2B5B
:101D9C0001D0002070BD01220149FFF77FFCF8E75C
:101DAC007501002010B50446812101F008F80121CD
:101DBC00204601F004F88221204601F000F8D4F806
:101DCC00183253B1D4F81C325B689847D4F8180217
:101DDC0001F066F80023C4F81832002010BD38B5A5
:101DEC000446037C73BB4FF400730222812100F084
:101DFC00D5FF4FF4007302220121204600F0CEFFE4
:101E0C00082303228221204600F0C8FF4FF40770FC
:101E1C0001F042F80546C4F8180248B3D4F81C3255
:101E2C001B6898470023C5F81432C5F81832237C78
:101E3C00A3B14023D5F804220121204601F018F863
:101E4C00002038BD40230222812100F0A7FF40234F
:101E5C0002220121204600F0A1FFD1E74FF40073CC
:101E6C00D5F804220121204601F002F8002038BDEB
:101E7C00012038BD19B1C0F81C1200207047022097
:101E8C007047D0F81832C3F80812C3F8102200209B
:101E9C007047D0F81832C3F8041200207047D0F8FD
:101EAC0018229AB108B5037C3BB14023D2F8042226
:101EBC00012100F0DDFF002008BD4FF40073D2F8C3
:101ECC000422012100F0D4FF002008BD022070473D
:101EDC0010B50446074B1868074BA3FB003080096C
:101EEC00FEF7BAFA002221464FF0FF30FEF776FAE1
:101EFC00002010BD34000020D34D621008B5074AF5
:101F0C00136843F0100313600320FEF755FA00200A
:101F1C00FFF7DEFF00F03CFE002008BD0020024071
:101F2C00024A136801331360704700BFBC070020DE
:101F3C00014B1868704700BFBC0700200020704799
:101F4C000020704738B504460378312B0CD0237829
:101F5C00302B10D00B4D21462846FFF79AFF284610
:101F6C00FFF79DFF002038BD00224FF400510648BA
:101F7C0000F016F9EBE701224FF40051024800F093
:101F8C000FF9E7E7980500200010014010B5064C4A
:101F9C00002206492046FFF774FF05492046FFF74B
:101FAC0078FF002010BD00BF98050020C00F002056
:101FBC00C0070020F0B583B00026344671E0002D38
:101FCC0000F0A180012D00D1CE68FF2B00F2AF8074
:101FDC008646FF2B00F2AE80A500DEF800200F270E
:101FEC00AF4022EA070206FA05F52A43CEF8002094
:101FFC004A6812F0805F53D0634A956945F0010539
:10200C009561926902F001020192019AA508AF1C38
:10201C005E4A52F8272004F00307BF004FF00F0E62
:10202C000EFA07FE22EA0E02DFF870E1704500F0AE
:10203C0088800EF5806E704500F086800EF5806EFF
:10204C00704500F084800EF5806E704576D04FF0B0
:10205C00040E0EFA07F73A4302354C4F47F8252089
:10206C004A6812F4803F75D0494D2A681A432A6099
:10207C004A6812F4003F73D0454D6A681A436A608F
:10208C004A6812F4801F71D0414DAA681A43AA60A5
:10209C004A6812F4001F6FD03D4DEA681343EB60A1
:1020AC0001340F2C6ED80122A2400B6813409A42C7
:1020BC00F6D14D68122D30D00BD8022D2AD07FF6D8
:1020CC007EAF032D2FD0112D7FF47FAFCE68043659
:1020DC007BE7304FBD4216D00CD92F4FBD4212D0EA
:1020EC0007F58037BD420ED0A7F58017BD427FF4AF
:1020FC006CAF08E0A7F58017BD4204D007F5803718
:10210C00BD427FF462AF8D687DB1012D08D0426174
:10211C0008265AE7CE68083657E7CE680C3654E7DF
:10212C000261082651E700264FE704264DE700F12F
:10213C00040E4EE7A4F10805AD004EE74FF0030E78
:10214C0087E74FF0000E84E74FF0010E81E74FF068
:10215C00020E7EE70E4D2A6822EA03022A6087E708
:10216C000B4D6A6822EA03026A6089E7084DAA6887
:10217C0022EA0302AA608BE7054DEA6822EA030310
:10218C00EB608DE703B0F0BD001002400000014091
:10219C000004014000002110000031100008014033
:1021AC0012B90904016170470161704770B582B0C2
:1021BC000446036813F0010F34D03E4BDB6913F077
:1021CC00805F48D13B4BDA6942F08052DA61DB69BF
:1021DC0003F080530193019B0125374B1B6813F4CB
:1021EC00807F3AD0334B1B6A13F4407311D0626872
:1021FC0002F4407293420CD02E4A136A23F44070BE
:10220C002E4901260E6000260E60106213F0010F9D
:10221C0037D1284A136A23F4407361680B43136265
:10222C00002D3FD1236813F0020F06D0214A5368CA
:10223C0023F44043A1680B435360236813F0100F41
:10224C0035D01C4A536823F48003E1680B43536078
:10225C00002002B070BD0025BFE7174A136843F495
:10226C0080731360FFF764FE0646134B1B6813F470
:10227C00807FB7D1FFF75CFE801B6428F5D9032063
:10228C00E7E7FFF755FE06460A4B1B6A13F0020FF1
:10229C00BFD1FFF74DFE801B41F288339842F3D932
:1022AC000320D6E7D36923F08053D361BAE700202B
:1022BC00CFE700BF001002400070004040044242D3
:1022CC00002866D0F0B587B0044690F82934C3B125
:1022DC00032384F829342068FEF7F8FB254655F8CB
:1022EC00107B6E460FCD0FC62B683360231D0ECBB3
:1022FC003846FEF7DBFB00212068FEF7F1FB0023DC
:10230C0015E080F8283400F08DFCE1E704EB431273
:10231C00012182F8291082F828309386002182F856
:10232C002B109163D1639A1C5201A15001330E2BD7
:10233C00ECD9002312E004EB4312002182F829129D
:10234C0082F82832938682F82B12C2F83812C2F81F
:10235C003C1203F112025201A15001330E2BEAD9A7
:10236C00254655F8107B6E460FCD0FC62B68336093
:10237C00231D0ECB3846FEF7B5FB002584F8245000
:10238C00012384F829342068FEF7C5FE284607B0DF
:10239C00F0BD0120704790F82834012B01D10220A8
:1023AC00704710B50446012180F8281400F079FD1F
:1023BC002068FEF7AEFE2068FEF77FFB002084F855
:1023CC00280410BD90F82834012B01D1022070474D
:1023DC0010B50446012380F8283480F824100068D6
:1023EC00FEF791FE002084F8280410BD38B54DB2DC
:1023FC00002D12DB01F07F04640104F50A7404441F
:10240C0001F07F012170ED0F65702261E37090F88F
:10241C002834012B07D1022038BD01F07F04640160
:10242C0028340444ECE70546012380F8283421467F
:10243C000068FEF76DFB002085F8280438BD4AB211
:10244C00002A10DB01F07F035B0103F50A730344E0
:10245C0001F07F011970D20F5A7090F82824012ACC
:10246C0007D10220704701F07F035B01283303443E
:10247C00EEE710B50446012280F8282419460068BE
:10248C00FEF7DFFC002084F8280410BD70B501F0C5
:10249C007F056C0104F50A7101440444C4F83C2224
:1024AC0005F112025201861883500023736084F8E0
:1024BC00293284F8285225B10068FEF749FE002025
:1024CC0070BD0068FEF744FEF9E701F00F01123110
:1024DC0000EB41118888704770B501F07F056C01E5
:1024EC0004F1280101440444E263AA1C5201861839
:1024FC00835000237360012384F8293084F828501A
:10250C0025B10068FEF724FE002070BD0068FEF7C0
:10251C001FFEF9E770B582B005460023ADF8063012
:10252C00ADF8043095E103889BB223F4E14323F02A
:10253C0070039BB203802A68B2F850309BB295F8B6
:10254C00281003EBC103023302EB4303D3F800342E
:10255C00C3F309036B64EA6B1344EB630021284655
:10256C0000F092FB95F82430002B00F072812B6C5C
:10257C00002B40F06E812A6895F8243043F08003DC
:10258C00A2F84C30002385F8243062E1B0F85030CA
:10259C009BB295F8282203EBC203063300EB4303EE
:1025AC00D3F80034C3F30903C5F84432B5F82C2230
:1025BC0005F22C41FEF732FF2A68138823F07003D2
:1025CC001B051B0D1380284600F04CFB41E1B5F8B0
:1025DC002C22D5F83C12FEF721FFD5F84422D5F871
:1025EC003C321344C5F83C3272E1C1F34F0211F096
:1025FC00010F01D0013292B2920292B2C3F80024C0
:10260C0084E130F824309BB2ADF80430BDF80430CE
:10261C0013F4004F36D1BDF8043013F0800F00F0E6
:10262C0018812A6832F824309BB223F4E14323F05A
:10263C0070039BB222F8243005EB441393F832302C
:10264C00002B40F0B6802868B0F850309BB205EBF8
:10265C00441292F8282003EBC203023300EB43032D
:10266C00D3F80034C3F30903A21C05EB42125360E8
:10267C00002B00F0CD8005EB44118A8DC96BFEF761
:10268C0052FDC5E030F8243023F070031B051B0D00
:10269C0020F8243005EB441393F83232DBB9286868
:1026AC00B0F850309BB205EB441292F8282203EBA1
:1026BC00C203063300EB4303B3F80064C6F3090608
:1026CC008EB305EB44113346B1F82C22D1F83C12F1
:1026DC00FEF7A4FE27E0286805EB441393F82822A4
:1026EC0030F8223013F4804F43D0B0F850309BB206
:1026FC0003EBC203023300EB4303B3F80064C6F3ED
:10270C00090666BB2A6805EB441393F8281232F8C5
:10271C00213023F0F0031B051B0D43F4004343F061
:10272C00C00322F8213004F112035B01E9184A6856
:10273C0032444A6005EB4411D1F83C223244C1F8D2
:10274C003C22EB581BB1D1F838128E4229D205EB42
:10275C00441393F82812284600F08CFA5BE705EB3B
:10276C0044113346B1F82E22D1F83C12FEF756FE36
:10277C00C8E7B0F850309BB203EBC203063300EB52
:10278C004303B3F80064C6F30906002EBAD005EB78
:10279C0044113346B1F83022D1F83C12FEF73EFE1C
:1027AC00B0E705EB441191F828122846FFF76EFEAE
:1027BC0031E7286805EB441393F8282030F82230D1
:1027CC0013F0400F00F0B880B0F850309BB203EB20
:1027DC00C203023300EB4303D3F80034C3F3090301
:1027EC00A21C05EB42125360002B40F09E802A681D
:1027FC0005EB441393F8281032F8213023F0F00342
:10280C001B051B0D43F4404343F0800322F8213099
:10281C002A68B2F850309BB205EB441090F828109F
:10282C0003EBC103023302EB4303D3F80024C2F3DE
:10283C000902A31C5B01E9184A60C16B0A44C2631C
:10284C00EB58002B40F0928090F82810284600F0AE
:10285C001BFA2868B0F844309BB2ADF8063013F47C
:10286C00004F00F08B80BDF8064014F00F047FF48D
:10287C00C8AEBDF8063013F0100F3FF454AE038809
:10288C009BB2ADF80430BDF8043013F4006F7FF444
:10289C007DAEBDF8043013F4004FDAD0038823F07A
:1028AC0070031B051B0D03802868B0F850309BB2D9
:1028BC0095F8282203EBC203063300EB4303D3F84D
:1028CC000034C3F30903C5F84432002B7FF47FAE08
:1028DC000021284600F0CEF92A68B2F850309BB29D
:1028EC00063302EB4303D5F838123E297FF67DAE52
:1028FC00C1F34F1211F01F0F01D1013A92B26FEADE
:10290C00C2626FEA524292B2C3F800242A6813885A
:10291C009BB223F4804323F0700383F4405343F4BD
:10292C00004343F08003138093E705EB4411CA8DF9
:10293C00C96BFEF7F8FB5AE7B0F850309BB203EBCB
:10294C00C203063300EB4303D3F80034C3F309038B
:10295C00A21C05EB42125360002B3FF448AF05EB71
:10296C0044110A8EC96BFEF7DEFB40E705EB4414FD
:10297C0094F828102846FFF7AFFD6AE7002002B054
:10298C0070BD10B504460068FEF7C7FB10F4004F8D
:10299C0045D12068FEF7C1FB10F4806F43D120684D
:1029AC00FEF7BBFB10F4804F08D02268B2F844301D
:1029BC009BB223F480439BB2A2F844302068FEF70C
:1029CC00ACFB10F4005F08D02268B2F844309BB224
:1029DC0023F400539BB2A2F844302068FEF79DFB11
:1029EC0010F4805F30D12068FEF797FB10F4006F75
:1029FC0049D12068FEF791FB10F4007F66D1206866
:102A0C00FEF78BFB10F4807F08D02268B2F84430BC
:102A1C009BB223F480739BB2A2F8443010BD2046C5
:102A2C00FFF778FDB5E72268B2F844309BB223F487
:102A3C0080639BB2A2F84430204600F034F90021A8
:102A4C002046FFF7BFFCAAE72268B2F840309BB2E1
:102A5C0023F004039BB2A2F840302268B2F8403055
:102A6C009BB223F008039BB2A2F84030204600F042
:102A7C0037F92268B2F844309BB223F480539BB2EE
:102A8C00A2F84430AFE72268B2F840309BB243F072
:102A9C000803A2F840302268B2F844309BB223F409
:102AAC0000639BB2A2F844302268B2F840309BB26B
:102ABC0043F00403A2F840302068FEF72EFB10F41C
:102ACC00805F96D1204600F0FBF892E72268B2F8BE
:102ADC0044309BB223F400739BB2A2F844302046DE
:102AEC0000F0DBF88BE738B54AB2002A10DB4B015B
:102AFC0003F50A73034401249C7001F07F041C70DD
:102B0C00D20F5A7090F82824012A07D1022038BD20
:102B1C0001F07F035B0128330344ECE705460122F7
:102B2C0080F8282419460068FEF76DFA1CB10020C5
:102B3C0085F8280438BD05F22C412868FEF7F1FA17
:102B4C00F5E710B54AB2002A10DB4B0103F50A7306
:102B5C00034400249C7001F07F011970D20F5A704D
:102B6C0090F82824012A07D1022010BD01F07F0320
:102B7C005B0128330344ECE70446012280F8282447
:102B8C0019460068FEF776FA002084F8280410BD78
:102B9C0000B583B0214B9A6942F001029A619B699E
:102BAC0003F001030193019B0320FDF705FC0022B8
:102BBC0011466FF00B00FDF711FC002211466FF06F
:102BCC000A00FDF70BFC002211466FF00900FDF71F
:102BDC0005FC002211466FF00400FDF7FFFB0022FC
:102BEC0011466FF00300FDF7F9FB002211466FF060
:102BFC000100FDF7F3FB002211464FF0FF30FDF70B
:102C0C00EDFB074B5A6822F0E0625A605A6842F0BA
:102C1C0000725A6003B05DF804FB00BF0010024064
:102C2C000000014002680E4B9A4200D0704700B57C
:102C3C0083B003F5DA33DA6942F40002DA61DB6956
:102C4C0003F400030193019B002211461420FDF7AD
:102C5C00C5FB1420FDF7F4FB03B05DF804FB00BFCB
:102C6C00005C004008B500F22C41D0F85C04FEF783
:102C7C001BFC08BD08B500EB4113D3F83C22D0F87F
:102C8C005C04FEF73EFC08BD08B500EB4113DA6BA3
:102C9C00D0F85C04FEF76AFC08BD08B5D0F85C04FB
:102CAC00FEF7EEFC08BD10B504460121D0F85C041B
:102CBC00FEF7D4FCD4F85C04FEF7B1FC10BD0000A8
:102CCC0010B50446D0F85C04FEF7CBFCA36923B125
:102CDC00024A136943F00603136110BD00ED00E0D6
:102CEC0008B5D0F85C04FEF7C5FC08BD10B5044669
:102CFC002048C0F85C44C4F820021F4B0360082332
:102D0C004360022383600323C36000238361C36198
:102D1C000362FFF7D5FA30BB182300221146D4F812
:102D2C002002FEF7A0FF582300228021D4F82002B5
:102D3C00FEF799FFC02300228121D4F82002FEF770
:102D4C0092FF4FF4887300220121D4F82002FEF781
:102D5C008AFF4FF4807300228221D4F82002FEF700
:102D6C0082FF002010BD4FF48D710448FDF7ACFAC2
:102D7C00D2E700BFC0170020005C0040E42F000821
:102D8C0008B5D0F82002FFF706FB18B1022803D0D3
:102D9C00022008BD002008BD012008BD10B51C464E
:102DAC0013462246D0F82002FFF720FB18B1022868
:102DBC0003D0022010BD002010BD012010BD08B5AD
:102DCC00D0F82002FFF73BFB18B1022803D00220F9
:102DDC0008BD002008BD012008BD08B5D0F82002B0
:102DEC00FFF781FE18B1022803D0022008BD002095
:102DFC0008BD012008BD08B5D0F82002FFF7A1FEE0
:102E0C0018B1022803D0022008BD002008BD012003
:102E1C0008BDD0F8202211F0800F06D101F07F01FF
:102E2C0002EB411191F82A02704701F07F0302EB8B
:102E3C00431191F82A00704708B5D0F82002FFF72B
:102E4C00C1FA18B1022803D0022008BD002008BD29
:102E5C00012008BD08B5D0F82002FFF73DFB18B1E2
:102E6C00022803D0022008BD002008BD012008BDA7
:102E7C0008B5D0F82002FFF709FB18B1022803D0DF
:102E8C00022008BD002008BD012008BD08B5D0F8FF
:102E9C002002FFF71AFB08BD00487047780100209C
:102EAC0070477047002103E00B4B5B5843500431D3
:102EBC000A480B4B42189A42F6D30A4A02E0002306
:102ECC0042F8043B084B9A42F9D3FEF729FC00F078
:102EDC000FF8FDF74BFA7047FC2F0008000000209C
:102EEC005801002058010020201C0020FEE70000A3
:102EFC0070B500250C4E0D4CA41BA410A54209D195
:102F0C0000F01AF800250A4E0A4CA41BA410A54286
:102F1C0005D170BD56F8253098470135EEE756F8C7
:102F2C00253098470135F2E7F42F0008F42F0008FC
:102F3C00F42F0008F82F0008F8B500BFF8BC08BC47
:102F4C009E467047F8B500BFF8BC08BC9E4670475B
:102F5C0002030405060708090A0B0C0D0E0F1010CE
:102F6C000102000043444320436F6E666967000012
:102F7C0043444320496E74657266616365000000CA
:102F8C0053544D6963726F656C656374726F6E69CF
:102F9C006373000053544D3332205669727475615B
:102FAC006C20436F6D506F72740000003030303005
:102FBC003030303030303141000000005372632F1C
:102FCC006D61696E2E6300000000000000000000BF
:102FDC0001020304060708095372632F75736264B8
:082FEC005F636F6E662E630047
:042FF400310100089F
:042FF8000D010008BF
:102FFC00A5010008B1010008E1010008BD010008AD
:10300C00FD0100082102000845020008120100021F
:10301C000202004083044057000201020301000039
:10302C000403090400A24A04EB1D0008B11D0008AA
:10303C003D1D000800000000B51C0008A31C000882
:10304C000D1D000800000000000000000000000042
:10305C00E91C0008DD1C0008F51C0008011D000817
:10306C0009024300020100C03209040000010202FF
:10307C0001000524001001052401000104240202B2
:10308C00052406000107058203080010090401004D
:10309C00020A00000007050102400000070581023A
:1030AC004000000009024300020100C03209040084
:1030BC000001020201000524001001052401000199
:1030CC0004240202052406000107058203080010EF
:1030DC0009040100020A00000007050102000200B9
:1030EC0007058102000200000A06000200000040F1
:1030FC000100000009074300020104C0320904006A
:10310C000001020201000524001001052401000148
:10311C00042402020524060001070582030800FFAF
:10312C0009040100020A000000070501024000002A
:10313C000705810240000000991F0008491F000884
:08314C004D1F0008511F00088F
:0400000508002EB110
:00000001FF
